:100000000C9434000C9451000C9451000C94510049
:100010000C9451000C9451000C9451000C9451001C
:100020000C9451000C9451000C9451000C9451000C
:100030000C9451000C9451000C9451000C945100FC
:100040000C9451000C9451000C9451000C945100EC
:100050000C9451000C9451000C9451000C945100DC
:100060000C9451000C94510011241FBECFEFD8E026
:10007000DEBFCDBF11E0A0E0B1E0EAEFF3E002C0E7
:1000800005900D92A430B107D9F711E0A4E0B1E0DA
:1000900001C01D92A631B107E1F70E942C010C941A
:1000A000FB010C9400008AB18F678AB987B188631D
:1000B00087B987B1887F87B9219A089580E48093B2
:1000C0007C00EAE7F0E087E08083808180688083BD
:1000D000089584B5836884BD85B5846085BDE0E8F6
:1000E000F0E0808181688083E1E8F0E080818C60CD
:1000F0008083209100013091010127BDC9019093B7
:10010000890080938800089590917C008770987F83
:10011000892B80937C0080917A00806480937A00A0
:1001200080917A0086FDFCCF209178003091790093
:10013000C90108951F93CF93DF93C8E0D1E010E089
:10014000812F0E948400899399931F5F1730C1F714
:10015000DF91CF911F91089580910E0190910F0131
:10016000855F914030F081E0809304011092070197
:1001700008958091100190911101855F914030F0B8
:1001800081E080930401809307010895809112011A
:1001900090911301855F914030F081E080930401DC
:1001A00082E0809307010895EF92FF920F931F93CF
:1001B000CF93DF938B01EC0180E9E82E81E0F82EEC
:1001C00011C0C7BD0E949A008CE291E0F7013197FF
:1001D000F1F70197D9F7D0930101C09300010E9474
:1001E000AC002196C017D10724F480910401882324
:1001F00041F3DF91CF911F910F91FF90EF90089500
:10020000EF92FF920F931F93CF93DF938B01EC013B
:1002100090E9E92E91E0F92E11C0C7BD0E949A0025
:100220008CE291E0F7013197F1F70197D9F7D0937C
:100230000101C09300010E94AC0021970C171D071B
:1002400024F480910401882341F3DF91CF911F9121
:100250000F91FF90EF900895CF92DF92EF92FF926F
:100260000F931F93CF93DF930E9453000E94690066
:1002700080E480937C0087E080937A0080917A000C
:10028000806880937A0078942EE5E22EF12CCC24BD
:10029000C39400E911E0DD24D394F0928900E09248
:1002A0008800C09202011092060110920501589830
:1002B00059985A985C9825C0589A0E949A00809143
:1002C0000001909101016DE770E00E94D4008091DF
:1002D0000401882321F0C09205011092020180914F
:1002E0000501882371F480910001909101016EE372
:1002F00070E00E94000180910401882311F01092A7
:100300000201809102018823B9F658986EC080914D
:100310000701813029F55A9ACEE5D0E01CC0D09370
:100320008900C09388000E949A008CE291E0F80155
:100330003197F1F70197D9F780910E0190910F0154
:10034000855F914020F0D09206011092070121971D
:10035000CE33D10559F180910601882301F326C0DF
:10036000823021F5599ACEE5D0E01CC0D0938900A7
:10037000C09388000E949A008CE291E0F8013197C6
:10038000F1F70197D9F780910E0190910F01855FE8
:10039000914020F0D0920601109207012196CD37AE
:1003A000D10521F080910601882301F38091070196
:1003B0008823D9F45C9A12C088EE93E0F801319753
:1003C000F1F70197D9F70E949A0080910E01909160
:1003D0000F01845F914010F4109206018091060194
:1003E000882351F75C9810920401809104018823BE
:0A03F00009F453CF8CCFF894FFCF2F
:0403FA005E000100A0
:00000001FF
